0000346951B044223C02035C06/01/201105/04/2011000000000000020766000000000000000000CHEQUE PRE                                             I
0000346950B044223B02035B06/01/201105/03/2011000000000000020766000000000000000000CHEQUE PRE                                             I
0000346949B044223A02035A06/01/201105/02/2011000000000000020766000000000000000000CHEQUE PRE                                             I
