0000347105B044257A03147A07/01/201107/01/2011000000000000006640000000000000000000DINHEIRO                                               I
0000347104B044257C03147C07/01/201105/03/2011000000000000014600000000000000000000CHEQUE PRE                                             I
0000347103B044257B03147B07/01/201103/02/2011000000000000013100000000000000000000CHEQUE PRE                                             I
