0000343813V004181D37694D03/12/201003/03/2011000000000000108863000000000000000000BOLETO                                                 I
0000343812V004181C37694C03/12/201003/01/2011000000000000108863000000000000108863BOLETO                                                 A
0000343811V004181B37694B03/12/201001/02/2011000000000000108863000000000000000000BOLETO                                                 I
0000343810V004181A37694A03/12/201003/12/2010000000000000108861000000000000108861EXTRATO DE CLIENTE                                     A
