0000334301V001953E47295E10/09/201010/01/2011000000000000090667000000000000000000BOLETO                                                 I
0000334300V001953D47295D10/09/201009/12/2010000000000000090667000000000000000000BOLETO                                                 I
0000334299V001953C47295C10/09/201009/11/2010000000000000090667000000000000092354BOLETO                                                 I
0000334298V001953B47295B10/09/201011/10/2010000000000000090667000000000000090667BOLETO                                                 A
0000334297V001953A47295A10/09/201019/09/2010000000000000090668000000000000090668BOLETO                                                 A
