0000341664B042909C00385C16/11/201012/02/2011000000000000019670000000000000000000CHEQUE PRE                                             I
0000341663B042909B00385B16/11/201012/01/2011000000000000019670000000000000000000CHEQUE PRE                                             I
0000341662B042909A00385A16/11/201012/12/2010000000000000019670000000000000000000CHEQUE PRE                                             I
