0000346155V004643C55559C22/12/201021/02/2011000000000000130409000000000000000000BOLETO                                                 I
0000346154V004643B55559B22/12/201021/01/2011000000000000130410000000000000146060BOLETO                                                 I
0000346153V004643A55559A22/12/201022/12/2010000000000000131000000000000000131000DEPOSITO EM C/C                                        I
