0000343785V007804C02821C03/12/201003/03/2011000000000000087870000000000000000000BOLETO                                                 I
0000343784V007804B02821B03/12/201008/02/2011000000000000087870000000000000000000BOLETO                                                 I
0000343783V007804A02821A03/12/201012/01/2011000000000000087870000000000000087870BOLETO                                                 I
