0000344067V007860C02989C06/12/201007/03/2011000000000000078623000000000000000000BOLETO                                                 I
0000344066V007860B02989B06/12/201004/02/2011000000000000078623000000000000078623BOLETO                                                 I
0000344065V007860A02989A06/12/201005/01/2011000000000000078624000000000000078624BOLETO                                                 I
