0000346958B044226D02368D06/01/201106/04/2011000000000000014996000000000000000000CHEQUE PRE                                             I
0000346957B044226C02368C06/01/201106/04/2011000000000000041360000000000000000000CHEQUE PRE                                             I
0000346956B044226B02368B06/01/201107/03/2011000000000000041360000000000000000000CHEQUE PRE                                             I
0000346955B044226A02368A06/01/201104/02/2011000000000000048857000000000000000000CHEQUE PRE                                             I
