0000334783V002059D53997D15/09/201014/12/2010000000000000043896000000000000043896BOLETO                                                 I
0000334782V002059C53997C15/09/201015/11/2010000000000000043896000000000000043896BOLETO                                                 I
0000334781V002059B53997B15/09/201015/10/2010000000000000043896000000000000043896BOLETO                                                 I
0000334780V002059A53997A15/09/201015/09/2010000000000000043897000000000000043897ACERTO COM MERCADORI                                   A
