0000339727V002076D00949D10/05/201008/12/2010000000000000037109000000000000037109BOLETO                                                 A
0000205529V002076C00949C10/05/201009/07/2010000000000000028864000000000000028864BOLETO                                                 A
0000205528V002076B00949B10/05/201009/06/2010000000000000028864000000000000028864BOLETO                                                 A
0000205527V002076A00949A10/05/201020/05/2010000000000000028863000000000000028863BOLETO                                                 A
0000343669V002076E00949E10/05/201014/01/2011000000000000037100000000000000000000BOLETO                                                 A
