0000341692B042919C08272C16/11/201027/01/2011000000000000025000000000000000000000CHEQUE PRE                                             I
0000341691B042919B08272B16/11/201027/12/2010000000000000025000000000000000000000CHEQUE PRE                                             I
0000341690B042919A08272A16/11/201027/11/2010000000000000025000000000000000000000CHEQUE PRE                                             I
0000341689B042919D08272D16/11/201016/11/2010000000000000000240000000000000000000DINHEIRO                                               I
