0000341655B042908C40174C16/11/201012/02/2011000000000000033595000000000000000000CHEQUE PRE                                             I
0000341654B042908B40174B16/11/201012/01/2011000000000000033595000000000000000000CHEQUE PRE                                             I
0000341653B042908A40174A16/11/201012/12/2010000000000000033595000000000000000000CHEQUE PRE                                             I
