0000347073B044248D46687D07/01/201104/04/2011000000000000030350000000000000000000CHEQUE PRE                                        55669I
0000347072B044248C46687C07/01/201104/03/2011000000000000030350000000000000000000CHEQUE PRE                                        55669I
0000347071B044248B46687B07/01/201104/02/2011000000000000030350000000000000000000CHEQUE PRE                                        55669I
0000347070B044248A46687A07/01/201107/01/2011000000000000030350000000000000000000CHEQUE PRE                                        55669I
