0000347082B044253C47194C07/01/201106/04/2011000000000000053900000000000000000000CHEQUE PRE                                             I
0000347081B044253B47194B07/01/201106/03/2011000000000000053900000000000000000000CHEQUE PRE                                             I
0000347080B044253A47194A07/01/201106/02/2011000000000000053900000000000000000000CHEQUE PRE                                             I
