0000342296V007522C04630C19/11/201018/01/2011000000000000067481000000000000000000BOLETO                                            55388I
0000342295V007522B04630B19/11/201020/12/2010000000000000067481000000000000075641BOLETO                                            55388I
0000342294V007522A04630A19/11/201026/11/2010000000000000067482000000000000067482BOLETO                                            55388A
