0000327627V004412D38166D14/07/201013/11/2010000000000000058524000000000000000000BOLETO                                                 A
0000327626V004412C38166C14/07/201012/10/2010000000000000058524000000000000058524BOLETO                                                 I
0000327625V004412B38166B14/07/201013/09/2010000000000000058524000000000000058524BOLETO                                                 I
0000327624V004412A38166A14/07/201013/08/2010000000000000058524000000000000058524BOLETO                                                 I
