0000333927V001847D54143D08/09/201007/12/2010000000000000068433000000000000000000BOLETO                                                 A
0000333926V001847C54143C08/09/201008/11/2010000000000000068433000000000000068433BOLETO                                                 A
0000333925V001847B54143B08/09/201008/10/2010000000000000068434000000000000068434BOLETO                                                 I
0000333924V001847A54143A08/09/201008/09/2010000000000000070000000000000000070000DINHEIRO                                               I
